:020000040000fa
:080000000002040000000000f2
:020000040000fa
:10000800b0640000b0640000b0640000b064000098
:10001800b0640000b0640000b0640000b064000088
:10002800b0640000b0640000b0640000c468000060
:1000380032670000b0640000b0640000b0640000e3
:10004800b0640000b0640000b0640000845c00008c
:10005800445c0000b0640000b0640000b0640000bc
:10006800b0640000b0640000b0640000b064000038
:10007800b0640000b0640000b0640000b064000028
:10008800b0640000b0640000b0640000b064000018
:10009800b0640000b0640000b0640000b064000008
:1000a800b0640000b0640000b0640000b0640000f8
:1000b800b0640000b0640000b0640000b0640000e8
:1000c800b0640000b0640000b0640000b0640000d8
:1000d800b0640000b0640000b0640000b0640000c8
:1000e800b0640000b0640000b0640000b0640000b8
:1000f800b0640000b0640000b0640000b0640000a8
:10010800b0640000b0640000b0640000b064000097
:10011800b0640000b0640000b0640000b064000087
:10012800b0640000b0640000b0640000b064000077
:10013800b0640000b0640000b0640000b064000067
:10014800b0640000b0640000b0640000b064000057
:10015800b0640000b0640000b0640000b064000047
:10016800b0640000b0640000b0640000b064000037
:10017800b0640000b0640000b0640000b064000027
:10018800b0640000b0640000b0640000b064000017
:10019800b0640000b0640000b0640000b064000007
:1001a800b0640000b0640000b0640000b0640000f7
:1001b800b0640000b0640000b0640000b0640000e7
:1001c800b0640000b0640000b0640000b0640000d7
:1001d800b0640000b0640000b0640000b0640000c7
:1001e800b0640000b0640000b0640000b0640000b7
:0801f800b0640000b0640000d7
:020000040000fa
:10020800b0640000b0640000b0640000b064000096
:10021800b0640000b0640000b0640000b064000086
:10022800b0640000b0640000b0640000c46800005e
:1002380032670000b0640000b0640000b0640000e1
:10024800b0640000b0640000b0640000845c00008a
:10025800445c0000b0640000b0640000b0640000ba
:10026800b0640000b0640000b0640000b064000036
:10027800b0640000b0640000b0640000b064000026
:10028800b0640000b0640000b0640000b064000016
:10029800b0640000b0640000b0640000b064000006
:1002a800b0640000b0640000b0640000b0640000f6
:1002b800b0640000b0640000b0640000b0640000e6
:1002c800b0640000b0640000b0640000b0640000d6
:1002d800b0640000b0640000b0640000b0640000c6
:1002e800b0640000b0640000b0640000b0640000b6
:1002f800b0640000b0640000b0640000b0640000a6
:10030800b0640000b0640000b0640000b064000095
:10031800b0640000b0640000b0640000b064000085
:10032800b0640000b0640000b0640000b064000075
:10033800b0640000b0640000b0640000b064000065
:10034800b0640000b0640000b0640000b064000055
:10035800b0640000b0640000b0640000b064000045
:10036800b0640000b0640000b0640000b064000035
:10037800b0640000b0640000b0640000b064000025
:10038800b0640000b0640000b0640000b064000015
:10039800b0640000b0640000b0640000b064000005
:1003a800b0640000b0640000b0640000b0640000f5
:1003b800b0640000b0640000b0640000b0640000e5
:1003c800b0640000b0640000b0640000b0640000d5
:1003d800b0640000b0640000b0640000b0640000c5
:1003e800b0640000b0640000b0640000b0640000b5
:0803f800b0640000b0640000d5
:020000040000fa
:100400000f9021000e7f22000e01880000000000e6
:10041000000020000000e000020032000001200087
:10042000200288000c000700604c2600010020001c
:100430000f000700000020000000e0000200320072
:1004400000000200000000000e6802000000000032
:100450000040da000000fe00a04721000000e0009c
:1004600002003200002020009001880000000600f9
:10047000a1028800800078000000eb001a0037001d
:10048000e280400054a0b4009101ba00e280400034
:1004900054a0b4009102ba00e280400054a0b4001d
:1004a0000002eb00472bde00f507b200a601880032
:1004b000602ce10008003a000049eb000201e8006e
:1004c000020039003420ec0002f0a0008301e900b2
:1004d000f9ff3e00040037006128e100010032000e
:1004e0000082eb00040007001101ba000200e000e6
:1004f000e3ff3a000000060004d0a300e20f490029
:100500001c003900810278003549ba000201e80078
:10051000020039003420ec0002f0a0008301e90061
:100520000f0032002549ba000201e800020039003c
:100530003420ec0002f0a0008301e9000800320042
:100540000400e0000600320015c9ba000201e8000c
:10055000020039003420ec0002f0a0008301e90021
:100560008180e80054a0b4000300e000e2ff3a00fc
:10057000000006009102ba00055978008301e900e5
:10058000f7ff3200c82ade00055978008301e90030
:10059000f3ff32000400e000f1ff320011d9ba008d
:1005a000eeff37005c0f0400000000000e1804008e
:1005b00000000000889fbe008a9fbe008c1f78004c
:1005c000a8000700af00330003866c006450e10010
:1005d0002e0032006420e100330032006150e1005f
:1005e0002f0032006120e100310032008585550086
:1005f000eb07b000090020000804200005003700c8
:100600000804440089844c000a00310006034300ba
:1006100087834b000001530081815b00f8ff3300aa
:100620000203be000800a0000804440089844c00b6
:10063000f6ff3900c639dd00830173000100320086
:10064000130020008904d1000884d3000998a30076
:10065000050032000800a7000300a0008904d100b3
:100660000884d3008b05e8008904d1000884d300f6
:100670000001eb000281d2003f00070001f0a10061
:100680000cf0a70001f0a000870037006420e10013
:10069000890032000801be000200be00f7ff3700eb
:1006a0006120e100840032006000b800f3ff3700f1
:1006b0000000200001f82700f0ff3700839f68004a
:1006c0000100e00002003d0060001000e080180022
:1006d0000300e00002003d0060011100e08119000c
:1006e0008f0107004f00e00002003b006000100097
:1006f000e0801800000006000001be004400070072
:100700000470a70003f0a10003f8a30013003a004f
:100710006509b10010003200090035006928e100c8
:100720000200350001002800000005000000400024
:10073000818048008502e900fcff3a0000000600c5
:10074000f88f4200050035008100d1000080d30001
:100750008502e800fcff3a00000006008000eb0084
:10076000000005004f89de0082017800c0033700d9
:100770006011b800ce033700810020006180550071
:100780000b003d000b00200061fe2f000100e10086
:100790001d00340082817100610164008904d10070
:1007a0000884d3000000e800faff3a00710020003e
:1007b0006100640003007000020060000900320064
:1007c00061044400e0844c000988a5000500320063
:1007d0008b05e8006808e10002003a008904d100b6
:1007e0000884d300f20f20000258e10005003d000c
:1007f000c75ddd00f907b200898075000800780048
:10080000000006000bf827008b00780000000500b0
:10081000c70ade00f107b200f50fb200080032008f
:10082000e1cf4200020032000170a0002400050068
:10083000810f70000100320004080500440005002b
:10084000810f700002003a00140005008502e900e3
:100850000000400081c04800fcff3b000170a00088
:10086000240005000004be00e9ff07000003be00ed
:100870000405be000200be00e5ff0700844f7500be
:10088000000006000200be006450e10005003600d2
:100890006420e100020036000968a30001003a006c
:1008a0000800be000160a0004f0678004f05be00a2
:1008b0004f04be0000000600f0ff2f00f1ff2700ec
:1008c000f9ff3700889fbe008a9fbe008c1f78000a
:1008d000e4ff0700ebff330003866c006450e10087
:1008e000240032006420e100270032006150e10062
:1008f000220032006120e100210032008b8542009d
:10090000eb07b1000134b800003ab8000804420017
:1009100089844a00013ab8000030b800888040005d
:1009200009014a00040033000000400081804800b3
:10093000020149008b05e900c909dd00830170004f
:100940000100320013002000c814de004814dd004e
:100950004709de001200b200c808de0008847000fb
:1009600085ff070001f0a1000cf0a70001f0a00036
:10097000cdff37006120e100cfff32000801be004b
:100980000200be00f7ff37006150e100fcff3a00b3
:10099000c9ff37000c00fa00889fbe008a9fbe0086
:1009a0008c9fbe00afff07000206be0084057800e2
:1009b0000200be0002002000e102070005003a002c
:1009c0008b02b30012002000dd02070001003a0094
:1009d000f8856d000c01be00c60007000800be00cf
:1009e0009b0032000b08a3009e003a000df0a70008
:1009f0000be0a00009f0a7000bf0a00009f0a10097
:100a00000801be00bb0007000bf0a60095003200f5
:100a100001003c000bd0a0008acf7500b20033006b
:100a20006000b8006250e10099003900a1003e006a
:100a30000b28a300a2003a000bf8a3000600320026
:100a40000b58a300a70032000801be00a900070050
:100a50000800be00940032000800be00eb01070051
:100a60000004be00050578000bf0a7000b30a600bf
:100a70000bf0a1005b079800324f200053f32300d6
:100a8000d602070005003d000800be00120020004d
:100a9000360307000004be000a05e9004a07980073
:100aa0006150b9002fff0700008fbe000c01be008f
:100ab00084ff0700cd020700300798000100e00026
:100ac00002003d0060001000e0801800f2ff2700e7
:100ad000820f5000e08f580064003e000c00be0002
:100ae000c202070020079800f2072000820f500082
:100af000e08f580005003c0012f82f00f3ff2f0094
:100b0000820f5000838f580009003d000a00e0006a
:100b10000300320001003c000201ea0002057800f7
:100b20006000b800200798003a07980019003700c5
:100b30003e0090006100b9000aff0700809fbe00e0
:100b40000c00be004109dd004811de007208b10052
:100b50007b0207000005be001e01be0059ff070012
:100b60004f01be00b6010700809fbe000c00be0012
:100b70000a01be00b20107001e01be0051ff0700be
:100b80004f01be00af0107008221270013f32300ad
:100b90004cff07000005be002e0090006100b90068
:100ba000f0fe070001f0a2000c01be00a501070045
:100bb0000006be000800be000e0307000c01be00c8
:100bc00040ff07000a01be009e010700809fbe0093
:100bd0004a0007002e0590000af0a7000a05ea0067
:100be000050037000800be000801be0035ff070001
:100bf0000004be000c00be000801be000a00a700f1
:100c000030ff07000006be000a05d100f5ff3a00dc
:100c10005e01900002e0a600030037000001be0064
:100c20003600070063fe07000004be004f00be0050
:100c3000e10107000801be0022ff07003e0190000d
:100c4000ca020700de0590000bf0a70001f0a20029
:100c50004f06be004f05be004f04be000080fa00e4
:100c60000000060025000700f9ff370027000700f5
:100c70006000b8000bd0a7000bc0a0000be0a700dd
:100c80000bc0a2000bc0a70001f82700f0ff37003f
:100c90000df8a300020032001e0007001900070033
:100ca0000bf8a300eaff32000b30a70001f0a2000e
:100cb000e7ff37000df8a300f9ff3a00f7ff370010
:100cc0000801be000b000700e6ff320001003c00f7
:100cd0000df0a2006000b8000df0a70009000700a9
:100ce000dbff37000b000700f1ff2700f0ff2f00ac
:100cf000d7ff3700010007003802370001f8230052
:100d00000000050001f82700000005002002200077
:100d10000100370010022000d041880000000600ca
:100d20006022b800060220000000d0008180d200be
:100d30000482d2008582d2000000a000020252008c
:100d400083825a00030031000202420083824a007b
:100d50000000a1000603e900f3ff3a0000000600ce
:100d6000889fbe008a9fbe0030044200b0844a00c3
:100d700030054b0090854b006000b1000898be0024
:100d80000a90be000440e10005c8e10006d0e10081
:100d900007d8e10002003100680040001008e800b8
:100da0004f05be004f04be0000000600889fbe0035
:100db0008a9fbe003004be002005be000418540007
:100dc00005985c0006185d0007985d001100200082
:100dd0000440e10005c8e10006d0e10007d8e100c9
:100de000010039008000eb00108810004f05be00a4
:100df0004f04be00000006001200fa00889fbe00eb
:100e00008a9fbe008c9fbe00e0b79f00f1b79f0095
:100e100082bf9f0093bf9f000605be000404be0072
:100e20000000eb00d0b79f00c0b79f00b0b79f0095
:100e3000a0b79f0090b79f000006eb005fb197003e
:100e4000cfb09700820141003fb097000200e00060
:100e500004003d00370007007e805700c0ff0700f8
:100e600003003700330007007e805700cfff0700e4
:100e7000dfb697000d00e0000c0035006fb2970060
:100e8000ffb297000fbb97009fbb97001000200098
:100e9000010020006011b80000027200818272001f
:100ea00002037300838373001b0007000c06e80035
:100eb00001042000810f5600e0ff3a000d00e00021
:100ec00004003d000802be000a03be007e805700f9
:100ed000a3ff07005fa897000000e00005003a00ac
:100ee0001fb29700afb297003fb39700cfb3970000
:100ef000090007006fb09700ffb097000fb9970087
:100f00009fb997004f06be004f05be004f04be00bc
:100f10000080fa0000000600010007000000060043
:100f2000a4b79f00b5b79f00c6b79f00d7b79f0073
:100f3000000006004f09de0082817100b3b79f00f8
:100f40004f01de008180400082807000a1b79f00c9
:100f50008fb097004f09de000000400002007000d3
:100f600090b79f007fa897004f01de00818040006e
:100f70008280700081b79f000d0007004f3ade00ad
:100f80000000400004007000f0af9f000800070060
:100f90000402420085824a0006034b0087834b000f
:100fa000dfff07000802be000a03be0000000600c3
:100fb0002fb29700bfb297004fb39700dfb39700ef
:100fc00000000600881f780018002000881f7800a5
:100fd00089ff07008f87e9004f04780000000600b2
:100fe000801feb0084ff07008f87e90000000600e8
:100ff000889fbe008a9fbe00e00f5000e08f58001f
:10100000e00f5900e08f59000c003d006044b8002b
:101010006055b8000000540081805c0002015d0052
:1010200083815d00180020001500070008003d00c6
:10103000180007000004eb00050037000004eb0077
:101040000f00070002003d001200070018002000fa
:10105000dcff07000800e000060032006022b80054
:101060006033b8000000520081805a0002015b002a
:1010700083815b004f05be004f04be0000000600e8
:10108000e00f5200e08f5a00e00f5b00e08f5b0042
:10109000000006006044b8006055b8000402540027
:1010a00085825c0006035d0087835d00000006000a
:1010b000889fbe008a9fbe008c1f7800e00f500002
:1010c000e08f5800e00f5900e08f59000d003d00ff
:1010d0006044b8006055b8000000540081805c0096
:1010e00002015d0083815d001c0020000820e100fa
:1010f00009a8e1000ab0e1000bb8e1000d003d00d5
:10110000080037000006eb00e00f5200e08f5a00a5
:10111000e00f5b00e08f5b0006003d006044b8001c
:101120006055b8000402540085825c0006035d002f
:1011300087835d00aaff07000c00e0000600320074
:101140006022b8006033b8000000520081805a006d
:1011500002015b0083815b004f0678004f05be00f3
:101160004f04be0000000600889fbe008a9fbe009c
:101170008c1f78000006eb00e00f5000e08f580055
:10118000e00f5900e08f590007003d006044b800af
:101190006055b8000000540081805c0002015d00d1
:1011a00083815d001c002000e00f5200e08f5a0098
:1011b000e00f5b00e08f5b0007003d006044b8007b
:1011c0006055b8000402540085825c0006035d008f
:1011d00087835d000c00a200dd0107000c00e00029
:1011e000060032006022b8006033b80000005200f0
:1011f00081805a0002015b0083815b004f0678000a
:101200004f05be004f04be00000006000003be00f4
:101210007ffd07006220e100020032000600be00f0
:1012200005000500e507b100f107b20004f0230056
:101230008480700007f0a70001f0a00024000500e2
:1012400003f0a200889fbe008a9fbe008c1f78001a
:1012500084fd07008bfd33006450e1004f00320035
:101260006420e1005200320003826c0007003b0062
:101270000905d0000306d000820f54000c065d0063
:10128000020039000200320089017800030678006c
:101290008582550004003d000003fd008103fd0030
:1012a0008502ea008b854200840f720002003b0039
:1012b00060001000e08018006011b8000005eb002d
:1012c0007a28e1000a00390006007800c75ddd00d9
:1012d000f707b200878075002d003700828171000a
:1012e0000a017800610560008180d1000080d30090
:1012f0008502e900f9ff3b000604400087844800ae
:1013000002003b0060041400e0841c000988a30074
:10131000070032008a8171008281710061016400de
:101320008904d1000884d3008b05e800170037003a
:101330000978a30013003a000b00e000130034000a
:101340008b05e9000804440089844c000a447400b9
:101350000978a3000d003a000b00e00007003400fc
:101360008b05e9000804440089844c0001003a0020
:101370000b0020000978a300f7ff32000001eb000a
:1013800002003700828171000a017800fafc070030
:101390000cf0a70001f0a00043fd37006420e1003d
:1013a00002003a00838f6c0043fd33000801be0049
:1013b0000200be003cfd3700889fbe008a9fbe0031
:1013c0008c9fbe000004be0011fd07000800be0097
:1013d0006420e10048003e005500320072212700e1
:1013e000132b24007f00070047003c000800be00cc
:1013f000c2ec2800e32c2c007800070047003500e1
:101400000800be0001f0a100020020000338230004
:1014100072000700430035000800be00b2a32a0096
:1014200083fb230027fd07000200200003f02300b8
:1014300001f0a70003f0a00082ff07006b00070087
:101440000005be00c7fc070001f0a2000006be00b8
:101450000200280013f323001afd07000801be0054
:1014600078ff0700809fbe000c00be0032082800f5
:10147000e3952b0013fd07004f01be0071ff07002d
:101480000006be000001be000efd0700809fbe00ea
:101490004241250083b823000afd07000200200016
:1014a00003e8230067ff07000c01be0005fd0700ed
:1014b0000006be004f00be00f2f92b00c3d423008b
:1014c00000fd07000200200003f023005dff07007d
:1014d0000c01be005aff07000001be000c00be0058
:1014e00034fc07000200200003f0230055ff070032
:1014f000610145009d0007004f06be004f05be007c
:101500004f04be000000060001f827000000200084
:1015100022022000d2418800f7ff37006000b800a7
:10152000fbff370001f8230000002000f2ff370026
:1015300009f8a300f0ff32006000b800eeff3700aa
:10154000889fbe008a9fbe000003be00b0fc07005b
:101550008505780082815200020020006220e100af
:1015600004003a00f307b100040035007718e100e9
:10157000040035000600be00140037006000b8000b
:101580000f003700f50f2000faff2f008502d10071
:101590000a85d3008301e900fcff3b0081846200df
:1015a00000046500890f7400f2ff32008582ea00b2
:1015b0000a85ea0081846200000465006efc070071
:1015c00007f0a70001f0a0000081eb000200e0009e
:1015d0004f05be004f04be000000060014002000ae
:1015e000fd003700f4ff2f00fb0037000001be00b4
:1015f00087fc07000470a70003f0a1006509b10093
:10160000160032000d0035006828e10006003500a4
:10161000f0ff2f00f1ff27000300e00013003b0064
:101620000100280000000500000040008180480003
:101630008502e900fcff3a0008003700f88f4200fd
:1016400002003c008000eb00000005008100d1009a
:101650000080d3008502e800fcff3a000300e000b0
:1016600002003b0060001000e0801800000006004f
:10167000881f7800030478000300e00007003d00a5
:1016800060001000e080180060011900e08119007e
:1016900002003b0001f02d000300370004000700aa
:1016a00008f0a70001f0a0004f0478000000060039
:1016b000889fbe008a9fbe000082700004027100f5
:1016c00004827100260032000004be000200be0049
:1016d0006011b8006b092000950220000182cf0044
:1016e0000a0039000541b1000082cf00070039002f
:1016f0000541b1000982cf00040039000541b10065
:101700000882cf00010039000541b10005425200b6
:10171000120032000a003b00828171006101640006
:101720008100d1000080d3008984d3000884d300d5
:101730008b05e8000442e800f7ff3a000700370095
:101740000804440089844c0000004800818048005f
:101750008b05e9000442e900f9ff3a0006fc0700a6
:101760004f05be004f04be00000006000003be008f
:1017700027fc07006220e100020032000600be00e4
:101780000000060085024100e30f20000328e1006d
:1017900005003c00a3fe2f000328e10007003d00e8
:1017a0000500200001003700f50f20002002200076
:1017b000d04188006000b800080037001300200006
:1017c0008381520005003d008100d1000080d300dc
:1017d0008301e800fcff3a0005002000c72add0075
:1017e000f107b2008580700007f0a70001f0a000ab
:1017f00000000600889fbe008a9fbe008c9fbe002e
:1018000082fe0700850478000005be006420e10028
:1018100049003e006220e10003003200090035006b
:101820000bf8a300440032000bf8a30008003200bc
:1018300010022000d0418800f0ff2f00f1ff2700a8
:101840003d00370001f82f00000020003a0037006b
:101850003d0007007afe07000006be000a00be0039
:10186000324f200053f323005eff070006003400d0
:101870000c00be003400070071fe07000006be0029
:101880000a00be00020037008904e9000c00be0017
:101890002d0007000bfc07002b00070069fe070066
:1018a0000001be000c00be0042fb07000005be00a8
:1018b0000001be0003fc07000006be00a2f32300e7
:1018c000430d2c005ffe0700809fbe000c00be0091
:1018d000d2e32700d3f02b00fafb07004f01be0034
:1018e00034fb07000006be000a01be00f5fb07003e
:1018f0000a01be0053fe07000006be006148b900a1
:1019000098fb07000005be0032082800e3952b0075
:10191000ecfb07000c01be004afe07000006be00fb
:101920000a00be000200280013f32300e5fb0700b5
:101930000c01be0043fe07004f06be004f05be006f
:101940004f04be000000060003f023000200050063
:10195000889fbe008a9fbe008c9fbe000404b80012
:101960000506b8008904460060854e000606b800ea
:101970000a054600e0854e000706b8008b054600c4
:10198000040eb800890446000a854e00e0854d002b
:10199000050eb8000a0546008b854e00060eb800fd
:1019a0008b0546000416b8000a0546008b854e00dc
:1019b0000516b8008b054600041eb8008b054600ce
:1019c0000800be000a01be004f06be004f05be0063
:1019d0004f04be0000000600889fbe008a9fbe0024
:1019e000841f78009ffb07004f0078001100330030
:1019f000f0ff2f00838f6c0006003b00040565009c
:101a00000a00a7000800370009f0a6001000200017
:101a100008003700820f5400838f5c0003003900f8
:101a20001000200001003e000000200009f0a70087
:101a30000000ea004f05be004f04be000000e000b9
:101a4000000006008001780002003700815978000c
:101a50000201e9000200e000fcff3a00000006007d
:101a6000889fbe0081047800194478000804e000d3
:101a70000e00320006003700d24178000304e00077
:101a80000a003200d1cf1100fbff32000000e80055
:101a90008800fb00f90007000000e00003003200ae
:101aa0000901780080007800f3ff37004f04be0082
:101ab00000000600e4874700889fbe008a9fbe00a2
:101ac0008c1f78008e1f78000005780001077800d1
:101ad000020678000e00e00001003a006e87570011
:101ae0008a0578008b047800890578003b447800eb
:101af0000800fb00d20007000000e000f9ff3a00f8
:101b0000d0c2b300804f54000300320000c0e9008f
:101b1000804f540002003a008904e80001003700b9
:101b2000004478000c0178008e00780009007800ed
:101b3000290007009e8f540001003a000a0f780028
:101b40009e0f550003003a00e00f5000e08f580050
:101b50000f003a00b2c2b300824f540004003a00b2
:101b6000e00f5000e08f580015003d0008003700de
:101b7000d2c2b300824f540011003a00020020008c
:101b800003002800820f5000838f58000a0036009f
:101b900020022000d0418800f0ff2f00f1ff270035
:101ba000d2c2b300824f540005003a00000020006a
:101bb000010028000200370060001000e0801800db
:101bc0004f0778004f0678004f05be004f04be0057
:101bd0004f00b10000000600ee874700889fbe005e
:101be0008a9fbe008c9fbe008e1f7800f0b79f00ba
:101bf0000106780082057800000478000805780066
:101c00000a047800b84678000d00fb008c0007003d
:101c10000000e000f9ff3a00d0c2b30080cf5600c8
:101c20000300320000c0e90080cf560002003a00f5
:101c30000a05e80001003700804678000b00e0004c
:101c400005003500e18f55000300320040022000fe
:101c5000808f5500060034006044b8000c00e0009e
:101c6000700032007fb09700000e78006d003700e2
:101c70000b00e0000e003200f08f55001a003a0011
:101c800000c3b3009a4f100017003a001a409000aa
:101c900081c7b300814f50000300320081c5b300fb
:101ca000814f500010003a000a85e8000e0037000e
:101cb000ab00200000c3b3009a4f10000a003a00a6
:101cc0001a40900081c7b300814f500004003200d9
:101cd0008b00200081c5b300814f500002003a0004
:101ce0000a85e8000b0120000a0078000002780055
:101cf0000400780001c3b300b0cf1000fbff320036
:101d0000040778006044b800b4b79f000d003700a6
:101d1000e184210081405000c1ef9f006159b9006a
:101d20000800be00bb0a07004fea97000401fb0051
:101d3000cf91de00c8b79f00d9b79f0002044000d2
:101d4000838448008e0278003e00fb0085bf9f0020
:101d5000430007000b01780080007800e084210038
:101d6000c10607008fba97000000e000e8ff3a00c4
:101d70003fb29700850f550005003a006044b80057
:101d80000c00e00027003200ffb29700240037006b
:101d9000048252003087210060c07d000000fb00fb
:101da000000252001700330011003a004fe997007b
:101db0000200fb00cf80de000000540081805c0048
:101dc000800f5400818f5c00090039006159b9000f
:101dd00085bf9f00d2fb07008fba97004fb19700d5
:101de000dfb19700820f5000838f5800050032004a
:101df00020022000d04188000084eb008084eb00aa
:101e000005003700d0c2b30080cf560002003a0070
:101e100060041400e0841c000c00e00001003200ab
:101e2000050e78000800be004f0778004f06be0080
:101e30004f05be004f04be00ef00b10000000600d9
:101e40006900e100040035006d00e100030034008a
:101e50000002b10001003200000005001000050082
:101e6000800078001104b100030035009101b10039
:101e700001003c000050a000000006000001eb0043
:101e8000030037000201e8000404e000070032000c
:101e90006103b8006112b8008601420066427a0010
:101ea000814f5200f7ff3a00010037008001eb003c
:101eb0000300780000000600881f78000204780004
:101ec0000801780072060700080040004f047800ff
:101ed000000006000000fa00881f78000004780067
:101ee000ea8157003fb9970088007800c0f52000cc
:101ef000070007000000e000020035008040eb0012
:101f0000017478004f0478000080fa000000060099
:101f10006200fa00889fbe008a1f780000057800e2
:101f200081047800020478008300780080f92f0093
:101f30000f004000780807009a979f00a9979f001c
:101f40000000eb00b09f9f001885fb008a04fb0097
:101f50000a05ea004f55de0050022000808f540031
:101f60000d003200e10f55000b003a000a01780025
:101f7000880078002f9097009f9197000300010040
:101f8000a0979f000000e0008e0032003f9897006d
:101f90000000e800b09f9f000a04440050022000a7
:101fa000808f5400040032000900e000e6ff3a0090
:101fb0003f989700840037000000eb00909f9f003f
:101fc000809f9f00f0979f00e0979f00d0979f0011
:101fd000c0979f0007003700e18c210001005000ee
:101fe00000004000218c210061007800df989700fc
:101ff00001007000d09f9f008804780009047800d9
:10200000384578008a00fb00e08c21009bff070028
:102010000000e000f0ff3a00a1c2b300814f55007c
:102020000e003a00cf8897000180e900c08f9f0022
:1020300010007800c09f9f000000e00005003d00f8
:102040000000ea00c09f9f005f9897000020a0005a
:10205000d09f9f000904e8000f003700c09f9f0039
:102060000000eb0005003700f2ff2700820f500050
:10207000020032006a01b9000280400009047800c1
:1020800088047800b900fb000103b100e98f50001b
:10209000f5ff3600c09f9f00e0c2b300984f1000cc
:1020a000020032000080eb0019003700a0c2b3002c
:1020b000d84f100007003a00cf8897000180e90050
:1020c000c08f9f0010007800a09f9f000804e800c8
:1020d000100037000000eb00a09f9f0088007800f0
:1020e00005003700f3ff2700830f50000200320085
:1020f0006a02b900040041000104780088007800f9
:102100003101fb000203b100e90f5100f5ff360079
:10211000a09f9f00984478008900fb00a08b2100bd
:1021200056ff07000000e000020032000804e8004b
:10213000010037008044eb00c97f9f0080c6b300d8
:1021400080cf540004003a0098cf14000a003a00ef
:102150006640500006003700c0c6b30080cf540070
:1021600005003a0098cf140003003a006540400093
:10217000c07f9f000804e8001801fb00e3fb2f006c
:102180008f81410081f92f008f804000a0f92f003e
:102190000f004000100007000000e00009003a00b6
:1021a000e1fb2f008f804000a0f92f000f004000be
:1021b0001d0707000000e000020035000804e800e9
:1021c00061ff37000080eb004f0578004f04be0030
:1021d0000080fa0000000600889fbe008a1f780079
:1021e00000047800824478000305780070c6b300cc
:1021f00080cf540021003c0000c0e90080cf540093
:10220000cd003d007240500080cf540034013200b8
:102210000d003c006c40500080cf540047013c0052
:1022200000c0e90080cf5400c3003d0050c2b3009d
:1022300080cf54003e0132007c40400080cf5400eb
:102240003e013a00bc00370010c6b30080cf5400f6
:10225000b900320004003c006940500080cf5400b7
:1022600036013a006600370030c6b30080cf540014
:10227000180032000040e8000900370000c7b30032
:1022800080cf54000801320008003c0000c0e90083
:1022900080cf5400d100320059003c00654050000e
:1022a00080cf540025013a000f00370050c7b3001b
:1022b00080cf5400520032006340400080cf540071
:1022c0004f0032006540500080cf54001b013a009f
:1022d000030137001181e90082087800780090003e
:1022e000127578001b01370028609000c2c6b30049
:1022f000824f500007003a0011017800640051003d
:10230000800878001000be004f89de00820178004e
:102310001100370012c7b300824f50000300320093
:10232000a2c6b300824f500006003a0011017800a7
:1023300068005100800878005001be004000be00d7
:10234000050037001180e90080087800100078004f
:10235000cf80de006109b900009cbe000294be007f
:102360002862900085c6b300854f52000d003200f0
:1023700025c6b300854f520004003a000000fb0060
:10238000cf80de006109b9000800370045c7b300ff
:10239000854f520003003200e6c24200854f5200d2
:1023a00004003a00cf80de006109b900009cbe0045
:1023b0000294be003802be002803be0078009000e0
:1023c000d1c2b300e00f5200e08f5a00e00f5b0073
:1023d000e08f5b0008003500881090000118a30012
:1023e00002003200b1c2b300030037000108a300ad
:1023f0004c00320001c2b30001757800470037007d
:1024000028609000c2c6b300824f500006003a0018
:102410001101780064005100800878001000be00af
:102420006011b8001100370012c7b300824f50008e
:1024300003003200a2c6b300824f500006003a00eb
:102440001101780068005100800878005001be003a
:102450004000be00050037001180e90080087800c8
:10246000100078008000eb006011b800009cbe00f6
:102470000294be002862900085c6b300854f5200ca
:102480000d00320025c6b300854f520004003a000b
:102490000080fb008000eb006011b80008003700ee
:1024a00045c7b300854f520003003200e6c2420028
:1024b000854f520004003a008000eb006011b80024
:1024c000009cbe000294be00081090000038a300db
:1024d000140032003800be002801be00e00f50009a
:1024e000e08f5800e00f5900e08f59000d003200d6
:1024f00080c7b30080cf54000300320080c5b30012
:1025000080cf540007003a007800900001c3b30068
:10251000017578000000e800097578000000e80007
:102520007004980078009000000545006a04980047
:10253000894078006700370028619000c0c4b3006c
:10254000804f510006003a001101780068005100e8
:10255000800878005001be004000be000500370032
:102560001101780064005100800878001000be005e
:10257000e0070700009cbe000294be00b800900077
:10258000780090000100e00002003d00d1c2b300dd
:1025900008003700881090000118a30002003200e4
:1025a000b1c2b300030037000108a30004003200e9
:1025b00001c2b300017578000000e80070049800c3
:1025c00078009000000545006a0498008900fb002f
:1025d000080078006500070060003700286190005f
:1025e000c3c6b3001180e900834f510022003200be
:1025f0000a003c00e4c15100834f51002500320025
:1026000083c1e800834f510013003200e8c151003c
:10261000834f51001e003a000a00370043c7b30041
:10262000834f51001b003200e6c14100834f51002f
:1026300018003200e9c15100834f510014003a00e4
:10264000050037008008780010007800485c900092
:1026500008487800410037008008780010007800b2
:10266000680a9000cfa2de00612bb9000498be007a
:102670000690be003900370080087800100078000e
:1026800068099000cf91de000288be003300370059
:102690001180e9008008780010007800680c900034
:1026a000080878002d0037001180e90080087800c4
:1026b00010007800cf80de006109b900009cbe00e8
:1026c0000294be0078009000000545006a0498005e
:1026d00081c7b30008007800a40407001f0037007a
:1026e0001180e90080087800100578006a049800dd
:1026f000d80c90000900e00004003d000a007800ba
:102700006a04070080047800070037000901780098
:102710008000eb000a007800530407000000e0008e
:10272000010032008a045000190c98000b00370099
:102730007800900009757800060037007800900056
:10274000000545000904e00001003a0059c2b30049
:10275000094d78000000e800700498000000eb00cc
:102760004f0578004f04be00000006002f04b000a3
:10277000889fbe008a9fbe008c9fbe008e1f78007f
:102780000007780081f79f003e04be002e05be00c2
:102790005e0890000000e00002003d0060002000a4
:1027a000500f98008e00780020fb2f000f00400093
:1027b00044040700e20f50000a003a0030002000f5
:1027c000100f9800b1c9b3000ff09700814040008e
:1027d000a07f2100e1cf50000d003e00607f21006e
:1027e0000b0037000000e0000f0034003000200034
:1027f000100f9800b1c9b3000ff19700814041005c
:1028000020802100e1cf500001003e00e07f210048
:10281000ee009000b0487800b06878001040780072
:1028200090409800f30037000000e00005003a00f7
:1028300022fb2f000f014100001978008001eb00fe
:10284000e70037006022b8006033b8000800be001f
:102850000a01be007e0607000000e00001003d0006
:102860000bf0a200705927009f9897000088b900cc
:10287000026a28001300200090f707006406500049
:102880009c9f9f0013003b0063061600c0ff2f00b3
:10289000000666008c01ea00939f9f006d80210076
:1028a0000800be000a01be00070037000c08a300a4
:1028b000030032003d02be002d03be005b0707008f
:1028c0000c86d100e88646000c00e000f7ff3c00d3
:1028d000180037000c00e00018003200c0ff2f0085
:1028e000000666009c9f9f006d8021006000b8007c
:1028f0000200200003ff2300070037000c08a3009c
:10290000030032003d02be002d03be004707070052
:102910000c86d100e88646000c00e000f7ff3c0082
:102920000002be000203be000800be000a01be0095
:10293000510607000004be000205be00de0890003c
:1029400060c6b3000ff29700804f520004003200bf
:102950006000200062c4b300824f520002003a00bf
:102960009f9a97006a80420081004000f1b79f0063
:1029700001037800f30f53000200340037012000f8
:10298000f7b79f0000c3b300c0779f0056fb2f002e
:102990000f0343000e007800a0b79f0006077800e1
:1029a0003d0037000800be000a01be00f006070027
:1029b0000006be007fb1970068015100f2b79f008a
:1029c0004240a9000c003400150707000002be00b9
:1029d0000203be000800be000a01be00880707000f
:1029e0006022b80046782d00771924000f070700f1
:1029f0000004be000205be00e80047008e00200073
:102a00000802be000a03be00b4b79f00c5b79f000e
:102a1000d6b79f00e7b79f000c01be000104780005
:102a20000c003700a400200005002000c0fd2f008e
:102a30000f004000770307006fa89700ffa89700da
:102a40000fb197009fb1970005c3b3000564410023
:102a50000001be00e00f5100e08f59000300340078
:102a60000e07e900e10f4700eeff3a00880078000a
:102a70003fb49700cfb497005fb59700efb59700cc
:102a80000200370000c3b300806078000e07e90041
:102a9000fcff3b00688740007fb397000600e00022
:102aa000070034006022b8006033b8000800be00a0
:102ab0000a01be00eb0507000000e000b9ff3c0082
:102ac0000e0378002fb7970051fb2f008f80400036
:102ad000010353009f9b970067804300909f9f00d6
:102ae000020037000603e9000000e9000101780058
:102af0008200780003c3b300b1cf1100f9ff3200a8
:102b0000909f9f00de09900061c6b3000ff297000e
:102b1000814f52000300320061c4b300814f520064
:102b200002003a000000e8000a0037001000200010
:102b300051c6b3008ff2970081cf520005003200da
:102b40000540780050c4b2000080fb000000e9009e
:102b50004f00de0083014000868f510001003400e9
:102b6000860178000300e0001d00350000c3b300bb
:102b7000868f510006003d0062c279006940400026
:102b800041c3b300814f520001003c006940500036
:102b90008300e900810041000100370084017800d2
:102ba0000302e90001037800a142780080cf5200bf
:102bb000faff320091c3b300814f500001003a0088
:102bc000054be8000400e00005003d000201e900bb
:102bd0008301e8001f9b97000603e800969f9f0073
:102be0008ff397008700fb001f9a97000e00780074
:102bf000060007004f0778004f06be004f05be00d5
:102c00004f04be002f04b10000000600f08747000b
:102c1000889fbe008a9fbe008c9fbe008e1f7800da
:102c200000047800814478000205be0004067800a4
:102c30000b00e00002003c001b002000ea8f210096
:102c400060c6b30080cf54000e00320060c4b300f1
:102c500080cf54000b00320070c6b30080cf540008
:102c60000300320070c4b30080cf540081003a00ea
:102c7000e40f46007f00350058089000800f560092
:102c80007c003d000c06e80060c6b30080cf540015
:102c90001000320060c4b30080cf54000d00320039
:102ca000081090000038a30004003a005808900073
:102cb000808f550001003d005b0c98005808900083
:102cc0000c005000500c980002003b000000eb008c
:102cd000500c980018089000e80090000c00e000ec
:102ce00026003c0002c3b300827078000000e800b8
:102cf000100c9800d80890000100e00003003c0090
:102d0000881090000138a30005003200e800900010
:102d1000e2c2b300827078000000e800100c980056
:102d2000580890008c00ea00810f500001003d001f
:102d30000006ea008c00ea00210c9800000646001c
:102d40005c0c98008b0f5600010034000b067800d5
:102d50003c0c9800e80090001808900000804000ab
:102d60000c0178008a007800c9020700580890001a
:102d70000c0650004c0c9800900037008c8f5500ca
:102d800018003d00008040000b0178008a007800a8
:102d9000bf0207001808900000804500100c980042
:102da0008b0556002b0c9800d80890000100e0001d
:102db00003003c00881090000138a3000600320098
:102dc000e8009000e2c2b3008270780038089000fa
:102dd0000000e800300c980058089000400c980063
:102de00076003700008040000c0178008a007800ef
:102df000a70207001808900000004600100c980079
:102e00008c855500d80890000100e00003003c00cc
:102e1000881090000138a30005003200e8009000ff
:102e2000e2c2b300827078000000e800100c980045
:102e300058089000808f550001003400800578000c
:102e4000e800900018089000008040008c004500c9
:102e50000b0178008e020700180890000b0040005c
:102e6000100c9800580890008b0550002b0c98000f
:102e70005200370018089000e80090009a7078001f
:102e80000000e800100c9800d80890000100e00055
:102e900003003c00881090000138a30005003200b8
:102ea000e8009000e2c2b300827078000000e80001
:102eb000100c9800580890000000e000100034004a
:102ec0008b05e900808f55000100340080057800f3
:102ed000e800900018089000008040008a00e80098
:102ee0000b0178006a020700180890000b004000f0
:102ef000100c9800580890008b0550002b0c98007f
:102f0000e800900018089000008040000958780000
:102f10000007e8000c00e00004003500b1c2b30077
:102f2000014878008e04780004003700d1c2b30055
:102f3000014878008e0478000c06ea007d85570071
:102f40008006eb0009003700a20020008c0078000a
:102f500072805700240207007fb097008fb8970057
:102f6000016d7800000678008d06e8000c00e00096
:102f7000f5ff3c000d00e00009003a008e047800e7
:102f800000c3b300805c7800050037008d06e900bf
:102f9000fc80570061c07e0002c3b300825c400029
:102fa0000d00e000f9ff3c00e800900018089000d8
:102fb0000080400080845400390c98000810900074
:102fc00074006000f00f50000e003a009808900066
:102fd0007800900000804000a808900001004000a8
:102fe000b808900001004000c808900001004000af
:102ff000f8089000810f500002003d000080500052
:10300000000c98004f0778004f06be004f05be0029
:103010004f04be000f01b10000000600881f7800b9
:103020000204780008017800190207000800400037
:103030004f047800000006000000fa00881f7800a6
:1030400000047800ea8157003fb9970088007800b3
:10305000e0802100070007000000e00002003500ca
:103060008040eb00017478004f0478000080fa0083
:10307000000006006200fa00889fbe008a1f7800e8
:10308000000578008104780002047800830078004d
:1030900080f92f000f0040001f0407009a979f003f
:1030a000a9979f000000eb00b09f9f001885fb00d0
:1030b0008a04fb000a05ea004f55de00500220009a
:1030c000808f54000d003200e10f55000b003a00d4
:1030d0000a017800880078002f9097009f91970050
:1030e00003000100a0979f000000e0008e00320066
:1030f0003f9897000000e800b09f9f000a0444003a
:1031000050022000808f5400040032000900e000cb
:10311000e6ff3a003f989700840037000000eb007c
:10312000909f9f00809f9f00f0979f00e0979f00d7
:10313000d0979f00c0979f0007003700818e210025
:103140000100500000004000c18d210061007800a6
:10315000df98970001007000d09f9f0088047800de
:1031600009047800384578008a00fb00808e210031
:1031700042fb07000000e000f0ff3a00a1c2b300ec
:10318000814f55000e003a00cf8897000180e9007a
:10319000c08f9f0010007800c09f9f000000e000db
:1031a00005003d000000ea00c09f9f005f98970067
:1031b0000020a000d09f9f000904e8000f00370006
:1031c000c09f9f000000eb0005003700f2ff2700c2
:1031d000820f5000020032006a01b90002804000f4
:1031e0000904780088047800b900fb000103b100ed
:1031f000e98f5000f5ff3600c09f9f00e0c2b3008a
:10320000984f1000020032000080eb0019003700d8
:10321000a0c2b300d84f100007003a00cf88970033
:103220000180e900c08f9f0010007800a09f9f00e0
:103230000804e800100037000000eb00a09f9f008a
:103240008800780005003700f3ff2700830f500047
:10325000020032006a02b900040041000104780053
:10326000880078003101fb000203b100e90f510032
:10327000f5ff3600a09f9f00984478008900fb006e
:10328000408d2100fdfa07000000e000020032003e
:103290000804e800010037008044eb00c97f9f006c
:1032a00080c6b30080cf540004003a0098cf1400c9
:1032b0000a003a006640500006003700c0c6b3005e
:1032c00080cf540005003a0098cf140003003a0064
:1032d00065404000c07f9f000804e8001801fb0023
:1032e000e3fb2f008f81410081f92f008f80400088
:1032f000a0f92f000f004000100007000000e000c0
:1033000009003a00e1fb2f008f804000a0f92f0058
:103310000f004000c40207000000e000020035007a
:103320000804e80061ff37000080eb004f057800db
:103330004f04be000080fa0000000600889fbe0017
:103340008a1f780000047800e0c6b300804f510067
:10335000c100320015003c006b405000804f51000e
:10336000240032000a003c0070405000804f5100a1
:10337000fa00320065404000804f51006800320082
:1033800050c2b300804f51000b013a0007013700d3
:1033900040c6b300804f51001b0032006540400022
:1033a000804f510004013a001700370030c7b300c6
:1033b000804f5100e900320007003c00644050009b
:1033c000804f5100560032000040e800804f51000d
:1033d000f9003a00d300370050c7b300804f5100c6
:1033e0004f00320063404000804f5100f2003a002d
:1033f0004b0037001181e9008208780078009000c6
:1034000012417800ea00370028609000c4c6b3007b
:10341000844f500007003a00110278006400520007
:10342000800878001002be004fabde0086037800f3
:103430001100370014c7b300844f5000030032005e
:10344000a4c6b300844f500006003a001102780071
:1034500068005200800878003002be002003be00e1
:10346000050037001180e90080087800100278001c
:10347000cfa2de00612bb900049cbe000694be0002
:103480002860900081c6b300814f50000d003200cb
:1034900021c6b300814f500004003a000402fb0033
:1034a000cfa2de00612bb9000800370041c7b3008e
:1034b000814f500003003200e6c04000814f5000b1
:1034c00004003a00cfa2de00612bb900049cbe00cc
:1034d0000694be003802be002803be0078009000ab
:1034e000d1c2b300e00f5200e08f5a00e00f5b0042
:1034f000e08f5b0008003500881090000118a300e1
:1035000002003200b1c2b300030037000108a3007b
:103510004c00320001c2b3008171780047003700cf
:1035200028609000c4c6b300844f500006003a00e3
:103530001102780064005200800878001002be007a
:103540006033b8001100370014c7b300844f500037
:1035500003003200a4c6b300844f500006003a00b6
:103560001102780068005200800878003002be0026
:103570002003be00050037001180e90080087800b4
:10358000100278008002eb006033b800049cbe009b
:103590000694be002860900081c6b300814f5000a1
:1035a0000d00320021c6b300814f500004003a00e4
:1035b0000482fb008002eb006033b8000800370093
:1035c00041c7b300814f500003003200e6c0400005
:1035d000814f500004003a008002eb006033b800d5
:1035e000049cbe000694be00081090000038a300a2
:1035f000140032003802be002803be00e00f520063
:10360000e08f5a00e00f5b00e08f5b000d0032009e
:1036100080c7b300804f51000300320080c5b30063
:10362000804f510007003a007800900001c3b300ba
:10363000817178000000e800827178000000e800e5
:103640007004980078009000808141006304980025
:10365000824078003e00370028619000c3c6b30066
:103660001180e900834f5100220032000a003c0023
:10367000e4c15100834f51002500320083c1e800ae
:10368000834f510013003200e8c15100834f5100b5
:103690001e003a000a00370043c7b300834f5100b1
:1036a0001b003200e6c14100834f51001800320078
:1036b000e9c15100834f510014003a000500370062
:1036c0008008780010007800485c90000848780076
:1036d000410037008008780010007800680a9000e8
:1036e000cfa2de00612bb9000498be000690be0098
:1036f00039003700800878001000780068099000d1
:10370000cf91de000288be00330037001180e9004f
:103710008008780010007800680c90000808780095
:103720002d0037001180e900800878001002780031
:10373000cfa2de00612bb900049cbe000694be003f
:1037400078009000808141006304980081c7b30035
:1037500008007800850007001f0037001180e9008d
:1037600080087800100578006a049800d80c900052
:103770000900e00004003d000a0078004b0007004b
:103780008004780007003700090178008000eb0012
:103790000a007800340007000000e0000100320059
:1037a0008a045000190c98000b0037007800900034
:1037b0008271780006003700780090008081410017
:1037c0000204e00001003a0052c2b30082497800ce
:1037d0000000e800700498000000eb004f0578003e
:1037e0004f04be000000060080027800010378004c
:1037f000110009000203d80080017800830a7800d4
:103800000299b90002015300920298000500780065
:1038100000000600881f78008a9fbe008c9fbe00b3
:10382000000478000205be000406be000401be00cc
:103830000a00be00a1f30700008cbe000c01be0010
:10384000f40307000005550081855d002a049800f7
:103850003b049800080078004f06be004f05be00ec
:103860004f0478000000060003003700b0cf1000be
:10387000050032000201e900800178000200e0004a
:10388000faff3a000000050003007800000006007f
:103890008001780002003700b15978000201e90088
:1038a0000200e000fcff3a00000006008000780003
:1038b000010178003104e000fdff3a0000005100f2
:1038c00000000600889fbe0000047800e6844000e7
:1038d0001900d0004500de00f27f2000820f50006a
:1038e00010003a00000ceb00990478006f8164002e
:1038f000200020001b003a00210190000200e0009f
:1039000018003a00110190000200e00015003a0092
:10391000100020001100e000120032002000200002
:10392000100037000000e00004003a0001007800b9
:10393000fb0107000000e00008003c00f200280046
:103940001901610001fe2300810c710021c02f00cc
:10395000010c40000080eb0002003700000ceb007f
:103960000000eb004f04be0000000600fc8747008b
:10397000889fbe008a9fbe008c9fbe008e1f78006d
:103980000006780080c5b30080cf50000a003200e6
:103990007740400080cf50000a003200694040006c
:1039a00080cf50000b003200908a210080bf9f0022
:1039b000ae0020000a0037008289210082bf9f00ec
:1039c00006003700938a210083bf9f008e002000ed
:1039d00003003700948a210084bf9f000e0120005d
:1039e0003c02be002c03be000605be000404be005f
:1039f00040c6b30080cf5000030032006540400055
:103a000080cf50000b003a00e00f5200e08f5a00c8
:103a1000e00f5b00e08f5b0006003d006000b80037
:103a20006011b80004045000858458000605590050
:103a300087855900e80f570004003200400020003d
:103a4000f00f570038003a00010037003000200026
:103a5000e00f5400e08f5c00e00f5d00e08f5d0040
:103a600004003a00dc0890008d0120000100e00015
:103a7000060032008e00e900888060008fba97004f
:103a8000e5c07800f1ef9f007d0120008000780004
:103a90008100e900050033008b05d1000a85d300c1
:103aa0008984d3000884d300f9ff3700089ebe0044
:103ab0000a96be00120037008d06e9008e00e9006c
:103ac000848060000fb99700e2c1780082fd2f006a
:103ad0000f01410003f17e00800078008100e900c1
:103ae000050033008783d1000683d3008582d3008d
:103af0000482d300f9ff3700049ebe000696be0084
:103b00003c02be002c03be00e00f5200e08f5a00c2
:103b1000e00f5b00e08f5b008b0034000d00e000e5
:103b2000e5ff3c00880037002c60900081c6b300a0
:103b3000814f50000b00320006003c000004e00002
:103b400008003200e6c05000814f50004e003a009d
:103b500004003700c1c6b300814f50004a003a004c
:103b6000210037000800e00004003a005c089000e3
:103b70008d0120000000e000060032001100090065
:103b80000e84d8000fb99700e2c07800f1ef9f00d3
:103b90007d012000110009000e84d8000a003700c2
:103ba000110009000e04d8008d06e9000e81b9004d
:103bb000020454008fb8970061417c0081fd2f0002
:103bc0008f80400082f07e00000478000800e00052
:103bd000020032000d00e000f1ff3c00cfc4de0027
:103be000614db90025003700e00f5400e08f5c0004
:103bf00004003a005c0890008d0120000000e00005
:103c0000070032006171b9000800be00fe02070023
:103c10008fb99700e3417800f3ef9f007d0120000a
:103c20006171b9000800be003df407000b003700c9
:103c30006171b9000800be00a0f207008d06e9001e
:103c400000f1b900020454000fba9700e4427c006e
:103c500084fd2f000f02420005f27e000004be002a
:103c6000e00f5000e08f5800020032000d00e0002d
:103c7000efff3c004fcdde008a057800089ebe00b5
:103c80000a96be0030003700e00f5400e08f5c0061
:103c9000e00f5d00e08f5d0004003a005c089000da
:103ca0008d0120000000e000090032006172b900bf
:103cb000612bb9000800be000a01be00c8f407006d
:103cc0000fba970064427800f4ef9f007d01200056
:103cd0006172b900612bb9000800be000a01be0084
:103ce000b8f407000d0037006172b900612bb9000c
:103cf0000800be000a01be00bdf407008d06e90001
:103d000000f2b900040454008fba970065427c00a9
:103d100085fd2f008f82420084f27e00009ebe004f
:103d20000296be003c04be002c05be00e00f54000d
:103d3000e08f5c00e00f5d00e08f5d00020034006a
:103d40000d00e000e8ff3c00e80f570010003a00cb
:103d50000c1090000038a3000d003200f78f5600c1
:103d600006003e0085fd2f008f824200e5c07e00e8
:103d700000c3b30080cf5000050032008d06e9007b
:103d800002c3b30081fd2f008f80400082f07e00cf
:103d900078811600120e98006c00900083fd2f00b1
:103da0008f8141008d804100b9fe07001c08900002
:103db000dc089000810f500006003d00008050009c
:103dc000000e98000c1090000040a1000016980012
:103dd0000f0037000100e0000d003d008c10900046
:103de000f4806000f08f500009003a007c099000d8
:103df000fc009000810051000c099000828050006e
:103e0000008050004240a90001003400000e9800dc
:103e10004f0778004f06be004f05be004f04be009e
:103e2000cf01b100000006000400fa00889fbe0028
:103e30008a9fbe008c1f780000047800010678007d
:103e4000f80d9000780090008085550008089000db
:103e5000808555001808900080855500280890003e
:103e600080855500380890008085550048089000ee
:103e7000808555000002220090bf9f0000032300b0
:103e8000a0bf9f00081090000028a30015003a0072
:103e90000b00e000130034000b0578008a04780062
:103ea000e20f55000100360029002000c8019000f3
:103eb00009017800ee8057005800900003000100cf
:103ec000500498000000e0008c0032006808900068
:103ed00009004000600c9800090555004240a90007
:103ee000eeff3c00780190000200e0000c0034007e
:103ef000c80190008c007800580090000300010079
:103f0000500498008080eb000000e0007c0032004c
:103f1000e80890007800900000804000600c980055
:103f2000880c90000900e0001100340009057800b9
:103f3000e28f5400010036002a002000c8019000e2
:103f40000a017800ec80570058009000030001003f
:103f5000500498000000e0006800320068089000fb
:103f60000a004000600c98008a845400edff37007e
:103f7000180990000200e0000c003400c801900015
:103f8000e8009000580090000300010050049800e1
:103f90008080eb000000e00059003200e80890004b
:103fa0001808900000804000600c9800a80c900059
:103fb0000900e0001100340009057800e28f540088
:103fc000010036002a002000c80190000a01780094
:103fd000ec80570058009000030001005004980046
:103fe0000000e00045003200680890000a00400030
:103ff000600c98008a845400edff37003809900067
:104000000200e0000e003400e80090001808900064
:1040100080804000c801900058009000030001001b
:10402000500498008080eb000000e0003400320073
:10403000e80890003808900000804000600c98006c
:10404000c80c90000900e000110034000905780058
:10405000e28f5400010036002a002000c8019000c1
:104060000a017800ec80570058009000030001001e
:10407000500498000000e000200032006808900022
:104080000a004000600c98008a845400edff37005d
:10409000081090008000eb000028a30018003200f8
:1040a0000b00e000160034008b047800090578004e
:1040b000e28f5400010036002a002000c801900061
:1040c0000a017800ee8057005800900003000100bc
:1040d000500498000000e0000800320068089000da
:1040e0000a004000600c98008a8454004240a900f5
:1040f000eeff3c008000eb00010037008080eb0009
:10410000010078004f0678004f05be004f04be0046
:104110000080fa0000000600010878000000060098
:10412000e6004000110178000500280085026100ca
:104130006f01610082087800020032001200200046
:1041400011003700a0019000120020000300e000e1
:104150000d003a00900190000300e0000a003a00d0
:104160001000e00008003a00360037006403400009
:104170009608780080017800530b78009009780049
:104180000408780070015100110278000400e0007a
:10419000f6ff320013003700640240001403780079
:1041a0004f33de0083814100830873008001780073
:1041b000d3037800cf3bde001403780006034300ee
:1041c000068a73001302780004024200100378008c
:1041d0004f33de00860972009001780003884100a9
:1041e0000201e90091017800ef8f5100eaff3600eb
:1041f0001000370080017800530378004f33dd0052
:104200001002d10004087300640240009403780097
:10421000cf3bdd001303d1008689730011037800c2
:104220004f33dd009401d100030a73009108d100df
:104230000201e80091017800ff8f5100edff3e0080
:10424000ef8861009188720002007800000006008b
:104250008f1fd100f20107008f87e9000000e00006
:1042600000000600809feb00ed0107008f87e9004a
:104270000000e000000006002800fa00889fbe0051
:104280008a9fbe008c9fbe0003866b0080000700e3
:104290006400e100440032006408e1004a0032009a
:1042a0006100e100460032006108e100490032008f
:1042b000ec0647006000b8003d02be003d03be00b2
:1042c000f48657006011b8003d04be003d05be00f5
:1042d0007d0320000b0037000000a0008d06e900e0
:1042e000130032000402420085824a0006034b009c
:1042f00087834b0000004000818048000201490094
:10430000838149000802520089825a000a035b0037
:104310008b835b00f0ff3b000802420089824a0069
:104320000a034b008b834b008d06e900edff3a003a
:104330008482720086827200f707b2008782720060
:1043400001003200150020001e0490003e0b90007a
:1043500006035400e63fb0000368a30007003200e4
:104360000000a7000500a0008301d1000281d30056
:104370008180d3000080d3000603e8008301d100d0
:104380000281d3008180d3000080d3000002eb00c3
:104390000482d2001200070003f0a1000cf0a70075
:1043a00003f0a0004e003700640247006408e100fb
:1043b000480032003400be003401be00f6ff370072
:1043c0006108e100430032006011b8006000b800ed
:1043d000f1ff370003ff270002002000fbff37003a
:1043e0001800200057002000080453000d003d0075
:1043f0000600200097fc2f000740e1001e0034005b
:1044000084827200610260008301d1000281d300c6
:104410008180d3000080d3000804e800f8ff3a0050
:104420004700200061046000050474000404640077
:104430000d00320061004000e0804800600149004a
:10444000e081490003b8a500070032000603e80038
:104450006538e10004003a008301d1000281d300f5
:104460008180d3000080d300f87f20000830e10075
:1044700003003500080378006000b8006011b80040
:104480004433dd00f300b200830173000000060036
:10449000680447000294be000094be00fc0447007c
:1044a0008694be008494be0009007800a501070030
:1044b00008007800a301070099007800814f700080
:1044c0000b003b000800be007e0107004f00b1005a
:1044d00003003700f3ff2700f2ff2f006110b9003f
:1044e0004f06be004f05be004f04be000080fa001c
:1044f0000000060081037800c5f007000001be003f
:104500006000b8000478a30013003a006220e100c4
:1045100015003e000d0039008301d1000281d30057
:104520008180d3008301d1000281d3008180d30038
:104530008301d1000281d3008180d3000538b0000f
:10454000c42add00f300b2008381720007f0a700e7
:1045500003f0a00000000600f3ff2700f2ff2f0089
:104560006110b900fbff370003ff2700f7ff37009a
:104570001400fa00889fbe008a9fbe008c9fbe0078
:104580000004be000205be00680047000a90be009d
:104590000890be006b0107000070a7000bf0a1009f
:1045a000304320009e02900080825200b0fe2f0017
:1045b0000028e10011003d00b0fc2f000028e100c0
:1045c000150034001e0990008e0890007e009000b7
:1045d0000501b0000201d1008180d3000080d3002a
:1045e0008502e800fbff3a000b00e000bcff3b0047
:1045f00060001000e0801800b9ff3700f0ff2f00c6
:10460000f1ff27000b00e000b5ff3b000100280090
:1046100000002000b2ff37006000b800b0ff370094
:104620004f89de00820178006d0137002800fa0012
:10463000889fbe008a9fbe008c9fbe0003866b00d1
:1046400093ff07000028a30064003a000128a3009c
:1046500067003a000008a30062003a000108a300c6
:1046600065003a001e009000be08900081064000e0
:10467000ed3fb100f4805700ee019000111ab80030
:104680008e099000311bb8009e099000311cb800c3
:10469000511db800f485570046000700fe01900048
:1046a0003a0007008b85e8003e0007008e09900065
:1046b00040000700ee019000340007008b85e80001
:1046c000380007008e099000400007009e09900006
:1046d0001b18b800890440000a854800fe019000bc
:1046e000340007008b85e80038000700ee019000d9
:1046f000300007008e0990001b18b80089044000a4
:104700000a8548000a98a30008003a000402420003
:1047100085824a0006034b0087834b0008044c0047
:1047200089844c000a054d008d06e90084827200e0
:10473000850273004c3add008502720001003200f0
:1047400015002000443ade001400b2004538de00b7
:10475000cb45dd000b007000c540de00cb4ddd0019
:104760008b8070004549de00cb55dd000b017100e8
:10477000c551de000d03780019ff070003f0a1000a
:104780000cf0a70003f0a00055ff37001b18b8007d
:104790008502400006834800e0834b0060044c0023
:1047a000070037001b18b800060340008783480045
:1047b000faff37001b18b800870340000884480040
:1047c000e0844c0060054d00000006001b18b80096
:1047d0000804400089844800faff37000108a3005c
:1047e0003cff3a005800be005801be00e3ff37000e
:1047f0000008a30037ff3a0009047800f9ff3700ea
:1048000007f0a2000900370045f107000400be00d0
:1048100000000600020ab900001bb9000200b8003f
:104820008100420081004300000006002800fa00d9
:10483000889fbe008a9fbe008c9fbe00070678003e
:10484000878669000c003b00030478008704780029
:1048500008f0a10009f0a100840f5000858f5800d6
:10486000860f5900890f5c00030033000cf0a20092
:1048700001003a000cf0a10005ff07006400e10010
:104880005f003200780147006408e10061003200f7
:104890006c014700748557003200be001201be0053
:1048a0003a04be001a05be001e039000be0a900026
:1048b0008503530006003d000004fd008104fd0057
:1048c0000205fd008305fd008703ea00050378006b
:1048d0000df8a3000400320060041400e0841c0002
:1048e00060051d00e0851d006022b8007d032000ea
:1048f0000d38e1008006eb000b0039004433dd0089
:10490000f300b20083017300390037008482720023
:104910000d027800e10664008b85d1000a85d30082
:104920008984d3000884d3008703e900f7ff3b00a4
:1049300008004000898048000a0149008b81490035
:1049400004003b0060001000e080180060011900c6
:10495000e08119000358a300090032008d82720023
:1049600084827200610260008301d1000281d30061
:104970008180d3000080d3000603e8001b003700cd
:104980000348a30017003a000600e00017003400b7
:104990000603e9000d00a3000000480081804800e4
:1049a00002014900838149000348a3000f003a0037
:1049b0000600e000090034000603e90000004000a2
:1049c00081804800020149008381490001003a00ca
:1049d0000003eb000348a300f5ff32006022b8009b
:1049e0000200370084827200618266007cfe07004c
:1049f00003f0a1000cf0a70003f0a000b8fe370000
:104a0000640147006408e10002003a000df8a300c9
:104a1000b0fe3a003200be001201be00b0fe370008
:104a2000889fbe008a9fbe008c9fbe000404be000b
:104a30000605be00809fbe00829fbe002f000700bb
:104a4000040678000800be000a01be002b00070023
:104a5000840678004f03be004f02be008d4f7600e3
:104a60007fb0970013003300f0ff2f008b8f6b0097
:104a700006003b000d0666000c00a7000a00370088
:104a800007f0a600100020000a003700880f52002f
:104a9000898f5a008a0f5b008b8f5b0003003900ff
:104aa0001000200001003e000000200007f0a700d9
:104ab0000000ea004f06be004f05be004f04be00d6
:104ac00000000600e48240001078a30007003200d6
:104ad000640240001178a3003400be001401be003f
:104ae000040032000330a700000006003500be00bd
:104af0001501be000330a0000000060005ff2700de
:104b000005826100070032000428e1000100320044
:104b1000240005000600070001003a0044000500db
:104b20000408050002000700f9ff3a001400050020
:104b30006f8261008102700085027100850272003f
:104b400000000600800078005002be005003be0046
:104b50004439de00f700b200f37f2000030161005a
:104b6000090032000218e10016003a0085017200c7
:104b700083017300838173000008200015003a0050
:104b8000400020001300370085017200830173008c
:104b90008381730005003a0004a8be0006a8be0089
:104ba000100020000b0037000201e900040242005f
:104bb00085824a0006034b0087834b000748a30009
:104bc000f9ff32000740a00004a8be0006a8be00fe
:104bd000200020008000980092009800000006004d
:104be000881f7800030478000300e00007003d0000
:104bf00060001000e080180060011900e0811900d9
:104c000002003b0001f02d00030037000400070004
:104c100008f0a70003f0a0004f0478000000060091
:104c2000889fbe000082700004027100048271003f
:104c30002400320036432000c50020008383cf00cb
:104c40000a0039000541b1008283cf000700390016
:104c50000541b1008183cf00040039000541b10056
:104c60008083cf00010039000541b10085c35300a6
:104c70006022b800120032000a003b0084827200f9
:104c8000610260008301d1000281d3008180d300e2
:104c90000080d3000603e8008743e800f7ff3a00ee
:104ca00007003700000040008180480002014900f1
:104cb000838149000603e9008743e900f9ff3a00d0
:0c4cc000c7fd07004f04be000000060006
:020000040000fa
:104ccc007379000073740000656d000020720000a1
:104cdc00657300006574000000090000466f000059
:104cec0072630000657300002061000020730000f7
:104cfc006f66000074770000617200006520000090
:104d0c007265000073650000742e00000a0d00002f
:104d1c00090a00000d0000006578000069740000ad
:104d2c000009000045780000697400007320000041
:104d3c00746800006520000074650000726d00004e
:104d4c00696e0000616c0000206100006e64000060
:104d5c002072000065730000756d00006573000023
:104d6c00206e00006f7200006d6100006c2000006e
:104d7c00707200006f670000726100006d2000000f
:104d8c006f7000006572000061740000696f0000b4
:104d9c006e2e00000a0d0000090a00000d00000034
:104dac00616e0000616c00006f670000206d0000f8
:104dbc006f6400006500000009410000637400008e
:104dcc0069760000617400006573000020740000b7
:104ddc0068650000206100006e6100006c6f0000cf
:104dec0067200000696e000070750000747300008d
:104dfc00206f000066200000746800006520000031
:104e0c0044410000432e00000a0d0000090a000076
:104e1c000d000000706300006d310000373700009a
:104e2c0034200000696e0000697400000009000065
:104e3c0050650000726600006f7200006d73000018
:104e4c002074000068650000206900006e7400008a
:104e5c0069740000696100006c6900007a610000ef
:104e6c00746900006f6e0000207200007574000001
:104e7c00696e000065200000666f00007220000063
:104e8c00746800006520000044410000432e0000bf
:104e9c000a0d0000090a00000d00000074720000e9
:104eac00696700006765000072200000646d0000f7
:104ebc0061300000000900005472000069670000b6
:104ecc006765000072730000206100002044000040
:104edc004d41000020740000726100006e730000f0
:104eec0066650000722000006f6e000020740000e8
:104efc0068650000204400004d4100003020000097
:104f0c0063680000616e00006e6500006c2e00008e
:104f1c000a0d0000090a00000d0000006e6f000071
:104f2c0074650000206f00006e0000000954000042
:104f3c00757200006e730000206f00006e6500003b
:104f4c00206e00006f740000652000006f6e000082
:104f5c002e0a00000d09000050610000726d000067
:104f6c006574000065720000733a0000203c00007c
:104f7c0063680000616e00006e6500006c2000002c
:104f8c006e7500006d620000657200003e2000002e
:104f9c003c6e00006f740000652000006e75000010
:104fac006d620000657200003e2000003c7600003f
:104fbc00656c00006f63000069740000793e0000ae
:104fcc000a0d0000090a00000d0000006e6f0000c1
:104fdc0074650000206f0000666600000009000088
:104fec0054750000726e0000732000006f6e00009c
:104ffc00652000006e6f000074650000206f0000db
:10500c00666600002e0a00000d09000050610000c9
:10501c00726100006d650000746500007273000021
:10502c003a2000003c630000686100006e6e0000d6
:10503c00656c0000206e0000756d0000626500005c
:10504c00723e0000203c00006e6f00007465000092
:10505c00206e0000756d000062650000723e00005d
:10506c000a0d0000090a00000d000000616c000030
:10507c006c2000006e6f000074650000732000004f
:10508c006f66000066000000095400007572000095
:10509c006e730000206100006c6c0000206e00003c
:1050ac006f74000065730000206f000066660000de
:1050bc002e0a00000d0900000a0d00000067000018
:1050cc00657400002073000070690000312000003e
:1050dc007374000061740000757300000009000017
:1050ec0047650000747300002072000065670000c3
:1050fc006973000074650000722000007374000076
:10510c00617400006573000020660000726f00007f
:10511c006d200000746800006520000053500000f2
:10512c0049310000206d00006f640000756c0000b8
:10513c00652e00000a0d0000090a00000d00000099
:10514c006765000074200000737000006932000075
:10515c00207300007461000074750000730000007f
:10516c0009470000657400007320000072650000a0
:10517c006769000073740000657200002073000002
:10518c0074610000746500007320000066720000fa
:10519c006f6d000020740000686500002053000053
:1051ac0050490000322000006d6f00006475000053
:1051bc006c6500002e0a00000d0900000a0d0000ad
:1051cc000067000065740000206400006d61000041
:1051dc0030200000737400006174000075730000cf
:1051ec000009000047650000747300002072000085
:1051fc006567000069730000746500007220000090
:10520c007374000061740000657300002066000078
:10521c00726f00006d2000007468000065200000b3
:10522c00444d000041300000206d00006f64000010
:10523c00756c0000652e00000a0d0000090a0000c4
:10524c000d00000067650000742000007361000011
:10525c006d7000006c650000206200007566000037
:10526c006665000072200000736900007a6500001a
:10527c0000090000476500007473000020740000f2
:10528c006865000020730000697a0000652000004a
:10529c006f66000020740000686500002073000039
:1052ac00616d0000706c00006520000062750000ec
:1052bc0066660000657200002e0a00000d090000f1
:1052cc000a0d0000006700006574000020730000e8
:1052dc0071750000617200006530000020730000e1
:1052ec007461000074750000730000000947000031
:1052fc0065740000732000007468000065200000d5
:10530c006375000072720000656e0000742000006e
:10531c00737400006174000075730000206f00004e
:10532c0066200000746800006520000061750000b4
:10533c00646900006f20000063680000616e00006b
:10534c006e6500006c200000737100007561000038
:10535c0072650000302e00000a0d0000090a0000e2
:10536c000d000000676500007420000073710000e0
:10537c00756100007265000031200000737400003c
:10538c00617400007573000000090000476500009f
:10539c007473000020740000686500002063000036
:1053ac0075720000726500006e74000020730000be
:1053bc007461000074750000732000006f660000bb
:1053cc002074000068650000206100007564000016
:1053dc00696f000020630000686100006e6e0000c1
:1053ec00656c000020730000717500006172000094
:1053fc00653100002e0a00000d0900000a0d0000a6
:10540c0000670000657400002074000072690000e1
:10541c00616e0000676c00006530000020730000b6
:10542c0074610000747500007300000009470000ef
:10543c006574000073200000746800006520000093
:10544c006375000072720000656e0000742000002d
:10545c00737400006174000075730000206f00000d
:10546c006620000074680000652000006175000073
:10547c00646900006f20000063680000616e00002a
:10548c006e6500006c200000747200006961000001
:10549c006e6700006c650000302e00000a0d0000e5
:1054ac00090a00000d000000736500007420000064
:1054bc00706300006d3100003737000034200000ad
:1054cc00726500006700000009530000657400005d
:1054dc00732000007468000065200000636f0000fa
:1054ec006e740000656e000074730000206f000085
:1054fc0066200000612000007265000067690000f2
:10550c007374000065720000206900006e200000ba
:10551c00746800006520000044410000432e000028
:10552c000a0d00000950000061720000616d00005e
:10553c006574000065720000733a0000203c0000a6
:10554c0072650000676900007374000065720000ea
:10555c00206900006e64000065780000206900007e
:10556c006e20000068650000783e0000203c0000c2
:10557c0072650000676900007374000065720000ba
:10558c0020760000616c0000756500002069000049
:10559c006e20000068650000783e00000a0d0000d7
:1055ac00090a00000d000000736500007420000063
:1055bc006d610000696e0000207600006f6c0000c9
:1055cc00756d000065000000095300006574000053
:1055dc007320000074680000652000006d610000fd
:1055ec00696e0000207600006f6c0000756d000085
:1055fc00652000006f6600002074000068650000e4
:10560c00206800006561000064700000686f000095
:10561c006e650000206100006d7000006c69000078
:10562c0066690000657200002e0a00000d0900007a
:10563c0050610000726100006d7400006572000022
:10564c00733a0000203c0000766f00006c7500007f
:10565c006d65000020730000657400007469000023
:10566c006e670000206900006e200000726100006f
:10567c006e670000652000005b3000002c200000ed
:10568c00363300005d3e00000a0d0000090a0000e0
:10569c000d000000736500007420000064750000ac
:1056ac007479000000090000536500007473000059
:1056bc002074000068650000206400007574000010
:1056cc007920000063790000636c00006520000005
:1056dc006f660000206100002073000071750000ef
:1056ec0061720000652000006f72000020740000e1
:1056fc00726100006e6700006c65000020610000a4
:10570c0075640000696f0000206300006861000090
:10571c006e6e0000656c00002e0a00000d09000082
:10572c0050610000726100006d650000746500003e
:10573c00727300003a2000003c61000075640000a8
:10574c00696f000020630000686100006e6e00004d
:10575c00656c0000206e0000756d00006265000035
:10576c00723e0000203c000064750000747900005b
:10577c0020630000796300006c6500002069000064
:10578c006e200000726100006e6700006520000052
:10579c005b3000002c20000032350000355d00002d
:1057ac003e0a00000d0900000a0d00000073000005
:1057bc0065740000207600006962000072610000d0
:1057cc00746f0000206300006f6e000066690000bb
:1057dc0067000000094300006f6e0000666900005e
:1057ec00677500007265000073200000746800008b
:1057fc006520000076690000627200006174000090
:10580c006f2000006f660000206f00006e650000c6
:10581c00207300007175000061720000652f00009c
:10582c0074720000696100006e6700006c65000016
:10583c0020630000686100006e6e0000656c000063
:10584c002e0a00000d09000050610000726100007a
:10585c006d65000074650000727300003a20000052
:10586c003c61000075640000696f0000206300005b
:10587c00686100006e6e0000656c0000206e000018
:10588c00756d000062650000723e0000203c000057
:10589c007669000062720000617400006f200000e5
:1058ac0072610000746500003e2000003c76000030
:1058bc006962000072610000746f000020640000d7
:1058cc0065700000746800003e0a00000d090000bd
:1058dc000a0d0000007300006574000020760000c3
:1058ec006962000072610000746f0000206f00009c
:1058fc006e00000009540000757200006e73000009
:10590c0020740000686500002076000069620000c9
:10591c0072610000746f0000206f00006e200000a8
:10592c00666f0000722000006f6e000065200000a2
:10593c0061750000646900006f200000636800005e
:10594c00616e00006e6500006c2e00000a0d0000f8
:10595c000950000061720000616d00006574000068
:10596c0065720000733a0000203c00006175000075
:10597c00646900006f20000063680000616e000025
:10598c006e6500006c2000006e7500006d620000fa
:10599c00657200003e0a00000d0900000a0d0000af
:1059ac00007300006574000020760000696200003e
:1059bc0072610000746f0000206f000066660000ca
:1059cc000009000054750000726e00007320000086
:1059dc0074680000652000007669000062720000a7
:1059ec00617400006f2000006f66000066200000ec
:1059fc00666f0000722000006f6e000065200000d2
:105a0c0061750000646900006f200000636800008d
:105a1c00616e00006e6500006c2e00000a0d000027
:105a2c000950000061720000616d00006574000097
:105a3c0065720000733a0000203c000061750000a4
:105a4c00646900006f20000063680000616e000054
:105a5c006e6500006c2000006e7500006d62000029
:105a6c00657200003e0a00000d0900000a0d0000de
:105a7c00000900005479000070650000202200002d
:105a8c00686500006c700000203c0000636f000033
:105a9c006d6d0000616e0000643e0000222000006d
:105aac00666f0000722000006d6f000072650000d0
:105abc00206900006e6600006f0a00000d000000f7
